:020000002DC011
:1000020080C088C0FCCFFBCFFACFF9CFF8CFF7CFB3
:10001200F6CFF5CFF4CFF3CFF2CFF1CFF0CFEFCFD2
:10002200EECF81C0ECCFEBCF80002000100040006B
:10003200C000F900A400B000990092008200F8000C
:100042008000980000000700E0002A001300EA0088
:10005200320002000C0046000000F894EE27ECBBD0
:10006200F1E0FBBFEBBFE5BFF8E1F1BDE1BD8DE023
:10007200A2E0BB27ED938A95E9F780E092E0A0E643
:10008200ED930197E9F7E8E4F0E085919591009707
:1000920061F0A591B59105901590BF01F001059011
:1000A2000D920197E1F7FB01F0CFEFE5EDBFE2E042
:1000B200EEBFC0EED0E054C07894DCD0E887F98778
:1000C200E3D0EE83FF8300E010E00230E0E01E07A1
:1000D20024F4E0D00F5F1F4FF8CF10C0CBD0EC83D9
:1000E200FD83D2D0EA83FB8302E010E00430E0E03B
:1000F2001E0724F4CFD00F5F1F4FF8CFA6D12C9646
:100102000895E9D0E7E15E1610F0552401C053943A
:10011200F0D015C0E0D0EBE34E1610F0442401C03D
:100122004394E7D00CC0D7D00C2C0D2821F4E1E089
:10013200F0E06F0104C0E1D011F4CC24DD24A1E091
:10014200E1D03AD1E991EFBFF991E991B991A99141
:100152009991899179916991F990199009901895DD
:10016200DAD0E0E0EA93EA93A0E02AD0E0EFE1BB44
:10017200E0E0E4BBEFEFEABBEAE0E5BFE0E2E4BFC8
:10018200E0EEEBBFE5E0F0E0FA93EA93E4E0F0E0C2
:10019200FA93EA93A7E0B0E028D00C2C0D2831F4B2
:1001A200A52DBB278ADFA42DBB2707C0A6D031F41B
:1001B200A3E6A8D082DFA3E6A5D090DFE3CFFFCFEE
:1001C200AA93EA81E370EA83E981E03019F0EA81D7
:1001D200E061EA83E881E03019F0EA81E068EA83CD
:1001E20093D0A7E0D1D0AA812AC0BA93AA938CD087
:1001F200A0E0CAD0A4D094D0A1EDC6D088D0A88166
:10020200B981EC9384D0AA81BB81EC93A0E0A1D008
:10021200AE2F19D0AC81BD81EC9391D02696089572
:10022200AA9372D0A0E0B0D0A8811AD0AE2FACD0E1
:10023200A98116D0AE2FA8D0AA8112D0AE2FA4D0F9
:100242007ED023960895AA93E881E295EF70AE2FAF
:10025200AA0FAA0FEA0FEE0FA991AF70EA0F089545
:10026200AA93A991EE27AA5012F0E05FFCCFA65FF5
:10027200EA0F0895BA93AA932897E4D0AA85BB857A
:10028200EAE0F0E0BAD00895AA85BB85EAE0F0E0A2
:10029200B9D00895F801A0EEB0E0EE0FFF1FAE0F47
:1002A200BF1FEC91E2BBF801DE011296EE0FFF1FB9
:1002B200AE0FBF1FC3D0AAEEB0E0EE0FFF1FAE0F0E
:1002C200BF1FEC91EBBBA1E0B0E076D0E0E0E2BB77
:1002D200A1E0B0E071C00A921A92FA926A937A93FC
:1002E2008A939A93AA93BA93EA93FA93EFB7EA930B
:1002F20008955A924A92A72D93CFE1E0F0E0EC15CF
:10030200FD050895B0E008950BD0A0ED3DC0A1E039
:1003120020D0AE2F98CFA898A998A09AA19815C0DE
:10032200A198A098EE270000999B0895989B0895A4
:1003320004D0A19A02D0A09AE1E06BE107C0A19A91
:10034200A09A03D0A098F9DFA19865E36A95F1F726
:10035200089578E0A098F1DF989BFECFEEDF8894B5
:1003620099990894A09AF1DFEE1F7A9599F77A2F5E
:10037200772311F4A19801C0A19ADFDFA098E5DFED
:10038200A09ADBDFA198D9CF78E0AA0F10F4A19848
:1003920001C0A19ADADFA098D0DF989BFECFCDDF13
:1003A200A09A7A9591F7A198C8DFA098CEDFE1E0F4
:1003B2009999EE27A09AC1CF109639F080EA9FE072
:1003C2000197F1F7A8951197C9F70895F195E1956D
:1003D200F04008950024112490E1AA0FBB1F001CD5
:1003E200111C0E1A1F0A18F40E0E1F1E01C0A16066
:1003F2009A9599F7FD01D001089512D0EBDF0EF422
:10040200E5DF0895E894B7FF04C0A095B095119672
:100412006894F7FDDBDFDEDFFD010EF4D7DF089520
:10042200E894F7FF02C0D2DF6894B7FF06C0A09538
:10043200B095119600F8039400FA0895ED91FC919D
:10044200119708951A930A930895198108810895BE
:00000001FF
